:100000000C94C1000C945F040C9438040C94E90027
:100010000C94E9000C94E9000C94DE060C94E900C1
:100020000C94E9000C94E9000C94E9000C94E900AC
:100030000C94E9000C94E9000C94E9000C94E9009C
:100040000C94EE030C94E9000C9448010C942201EA
:100050000C94E9000C94E9000C94E9000C94E9007C
:100060000C9486040C94E900000000002300260094
:10007000290004040404040404040202020202022B
:10008000030303030303010204081020408001025C
:1000900004081020010204081020000000080002DB
:1000A0000100000304070000000000000000536589
:1000B0007474696E67206E6F7420666F756E64204D
:1000C000696E20454550524F4D2E20557064617425
:1000D000696E6720746F2064656661756C74004694
:1000E00069726D776172652076657273696F6E3AB9
:1000F0002000426174746572792069733A20004867
:10010000756D69646974792069733A200054656D6E
:1001100070657261747572652069733A2000476575
:100120007474696E67206261747465727920766F89
:100130006C746167652E2E2E00526571756573743F
:10014000696E672074656D70657261747572652F74
:1001500068756D69646974792E2E2E005472616E13
:10016000736D697474696E672E2E2E000000000096
:10017000240027002A0000000000250028002B0092
:10018000610E11241FBECFEFD8E0DEBFCDBF11E05E
:10019000A0E0B1E0E2E2F8E202C005900D92A239DF
:1001A000B107D9F723E0A2E9B1E001C01D92A93A55
:1001B000B207E1F710E0C1ECD0E004C02197FE01E6
:1001C0000E94C60EC03CD107C9F70E94F8090C94E2
:1001D0000F140C940000CF92DF92EF92FF920F93D6
:1001E0001F93CF93DF936C017A018B01C0E0D0E0C5
:1001F000CE15DF0589F0D8016D918D01D601ED9105
:10020000FC910190F081E02DC6010995892B11F434
:100210007E0102C02196ECCFC701DF91CF911F91E3
:100220000F91FF90EF90DF90CF9008950E940F11F3
:1002300083E792E00E949C0121E0892B09F420E0F1
:10024000822F08951F920F920FB60F9211242F93B1
:100250003F934F935F936F937F938F939F93AF934E
:10026000BF93EF93FF9383E792E00E949502FF9183
:10027000EF91BF91AF919F918F917F916F915F911E
:100280004F913F912F910F900FBE0F901F90189597
:100290001F920F920FB60F9211242F938F939F935B
:1002A000EF93FF93E0918302F09184028081E091CB
:1002B0008902F0918A0282FD12C0908180918C02A5
:1002C0008F5F8F7320918D02821751F0E0918C0225
:1002D000F0E0ED58FD4F958F80938C0201C0808136
:1002E000FF91EF919F918F912F910F900FBE0F90E3
:1002F0001F901895FC01918D828D981761F0828D69
:10030000DF01A80FB11D5D968C91928D9F5F9F7349
:10031000928F90E008958FEF9FEF0895FC01918DEB
:10032000828D981731F0828DE80FF11D858D90E058
:1003300008958FEF9FEF0895FC01918D228D892FF5
:1003400090E0805C9F4F821B91098F7399270895DD
:1003500080E090E0892B29F00E94180181110C9413
:10036000000008953FB7F894809102029091030233
:10037000A0910402B091050226B5A89B05C02F3FAD
:1003800019F00196A11DB11D3FBFBA2FA92F982FBB
:100390008827820F911DA11DB11DBC01CD0143E035
:1003A000660F771F881F991F4A95D1F70895089502
:1003B00085ED8093BC008091BC0084FDFCCF109241
:1003C0004F0208954091DC01262F30E0240F311DAB
:1003D00021323105DCF420914F022430C9F4FC01B4
:1003E00080E090E0861758F43091DC012191DC0127
:1003F000A654BE4FA30FB11D2C930196F3CF80914D
:10040000DC01680F6093DC0180E0089581E00895CD
:1004100082E008950895E091080280910702E817AC
:1004200030F4F0E0E75FFD4F808190E008958FEFBA
:100430009FEF08959091080280910702981750F459
:10044000E92FF0E0E75FFD4F208130E09F5F909360
:10045000080202C02FEF3FEFC90108958091070203
:1004600090E020910802821B91090895CF92DF92BB
:10047000EF92FF920F931F93CF93DF937C01262F70
:10048000972F8A0180915002882391F0C62FD72F91
:100490006E01C40ED51ECC15DD0571F06991D70132
:1004A000ED91FC910190F081E02DC7010995F3CF0A
:1004B000642F822F0E94E201C801DF91CF911F912A
:1004C0000F91FF90EF90DF90CF900895CF93DF933F
:1004D0001F92CDB7DEB76983209150022223D1F05D
:1004E00020917202203240F021E030E0FC013383A1
:1004F000228380E090E015C080915102E82FF0E067
:10050000EE5AFD4F998190838F5F809351028093C3
:10051000720205C061E0CE0101960E94E20181E015
:1005200090E00F90DF91CF910895FC01848DDF0161
:10053000A80FB11DA35ABF4F2C91848D90E0019656
:100540008F739927848FA689B7892C93A089B18945
:100550008C9180648C93938D848D981306C002884F
:10056000F389E02D80818F7D80830895EF92FF9243
:100570000F931F93CF93DF93EC0181E0888F9B8DC6
:100580008C8D981305C0E889F989808185FD24C088
:10059000F62E0B8D10E00F5F1F4F0F731127E02E0B
:1005A0008C8DE8120CC00FB607FCFACFE889F989E8
:1005B000808185FFF5CFCE010E949502F1CF8B8D12
:1005C000FE01E80FF11DE35AFF4FF0820B8FEA891D
:1005D000FB898081806207C0EE89FF896083E8899A
:1005E000F98980818064808381E090E0DF91CF9100
:1005F0001F910F91FF90EF900895CF93DF93EC013F
:10060000888D8823C9F0EA89FB89808185FD05C032
:10061000A889B9898C9186FD0FC00FB607FCF5CF6C
:10062000808185FFF2CFA889B9898C9185FFEDCFB4
:10063000CE010E949502E7CFDF91CF9108958330DC
:1006400081F028F4813099F08230A1F0089587304C
:10065000A9F08830B9F08430D1F4809180008F7D8A
:1006600003C0809180008F7780938000089584B5C7
:100670008F7702C084B58F7D84BD08958091B000CE
:100680008F7703C08091B0008F7D8093B000089574
:100690001F93CF93DF93282F30E0F901E656FF4FE9
:1006A0008491F901EA57FF4FD491F901EE58FF4FB9
:1006B000C491CC23C9F0162F81110E941F03EC2F87
:1006C000F0E0EE0FFF1FEA58FE4FA591B4918FB7EF
:1006D000F894111105C09C91ED2FE095E92302C01B
:1006E000EC91ED2BEC938FBFDF91CF911F9108958B
:1006F000CF93DF9390E0FC01EA57FF4F2491FC0178
:10070000EE58FF4F8491882361F190E0880F991F84
:10071000FC01E459FE4FC591D491FC01EA58FE4F0B
:10072000A591B491611109C09FB7F8948881209573
:1007300082238883EC912E230BC0623061F49FB733
:10074000F8943881822F809583238883EC912E2B17
:100750002C939FBF06C08FB7F894E8812E2B288377
:100760008FBFDF91CF9108958F929F92AF92BF92EA
:10077000CF92DF92EF92FF926B017C010E94B20157
:100780004B015C01C114D104E104F104F1F00E94B9
:10079000B201DC01CB0188199909AA09BB09883E7D
:1007A0009340A105B10570F321E0C21AD108E10818
:1007B000F10888EE880E83E0981EA11CB11CC114BC
:1007C000D104E104F10419F7DDCFFF90EF90DF9041
:1007D000CF90BF90AF909F908F9008951F920F92EF
:1007E0000FB60F9211242F933F938F939F93AF9344
:1007F000BF9380919A0190919B01A0919C01B0912F
:100800009D013091010226E0230F2D3720F402963E
:10081000A11DB11D05C029E8230F0396A11DB11D1F
:100820002093010280939A0190939B01A0939C01D5
:10083000B0939D018091020290910302A091040265
:10084000B09105020196A11DB11D80930202909303
:100850000302A0930402B0930502BF91AF919F9150
:100860008F913F912F910F900FBE0F901F90189571
:100870001F920F920FB60F9211242F933F934F9315
:100880005F936F937F938F939F93AF93BF93EF93F8
:10089000FF93E0910201F09103010995FF91EF911F
:1008A000BF91AF919F918F917F916F915F914F9188
:1008B0003F912F910F900FBE0F901F9018951F9290
:1008C0000F920FB60F9211242F933F934F935F9384
:1008D0006F937F938F939F93AF93BF93EF93FF9308
:1008E000E0910001F09101010995FF91EF91BF9115
:1008F000AF919F918F917F916F915F914F913F91B8
:100900002F910F900FBE0F901F9018951F920F926E
:100910000FB60F9211242F933F934F935F936F93D2
:100920007F938F939F93AF93BF93EF93FF938091A8
:10093000B900887F803609F49CC068F5883209F4D4
:100940005BC090F4803109F454C038F4882309F472
:10095000F6C0883009F44DC0F6C0883109F44CC0A7
:10096000803209F45DC0EFC0803409F468C048F4F7
:10097000803309F455C0883309F0E5C080934D02F7
:10098000D8C0803509F44FC0883509F45DC088347B
:1009900009F0D9C0D6C0883909F4C7C0A8F488378F
:1009A00009F467C038F4883609F463C0803709F465
:1009B00060C0C9C0883809F4B8C0803909F45FC084
:1009C000803809F0C0C05BC0803B09F486C038F4B1
:1009D000803A09F466C0883A09F47FC0B4C0803C0C
:1009E00009F4A7C0883C09F4A4C0883B09F48AC074
:1009F000AAC080912A0210C090914C0280914B02B3
:100A0000981770F5E0914C0281E08E0F80934C02B4
:100A1000F0E0E55DFD4F80818093BB0085EC86C0F2
:100A200080934D028EC0E0914C0281E08E0F809346
:100A30004C028091BB00F0E0E55DFD4F808390911A
:100A40004C0280914B026EC0E0914C0281E08E0F0F
:100A500080934C028091BB00F0E0E55DFD4F808308
:100A600080914E0281116DC081E08093290284EA59
:100A700061C083E080934F0210920002CFCF80913B
:100A80000002803208F051C0E091000281E08E0F38
:100A9000809300028091BB00F0E0E052FE4F808323
:100AA000BDCF85EC8093BC0010924F028091000274
:100AB000803230F4E0910002F0E0E052FE4F10820C
:100AC0006091000270E0E091DE01F091DF0180EEC4
:100AD00091E009951092000236C084E080934F02A5
:100AE0001092DD011092DC01E091DA01F091DB015E
:100AF00009958091DC01811105C081E08093DC01C2
:100B00001092BA01E091DD0181E08E0F8093DD014A
:100B1000F0E0E654FE4F80818093BB009091DD01B0
:100B20008091DC01981708F479CF85E88093BC00A8
:100B30000AC085EC8093BC0010924F0204C0109252
:100B40004D020E94D801FF91EF91BF91AF919F910B
:100B50008F917F916F915F914F913F912F910F9066
:100B60000FBE0F901F9018958EBD0DB407FEFDCFE0
:100B70008EB50895CF92DF92EF92FF92CF93C82F58
:100B800035B1C12CD12C7601C394B701A6010090D8
:100B9000920104C0440F551F661F771F0A94D2F7B5
:100BA0004095242F232325B9892F0E94B4058C2F2B
:100BB0000E94B40585B10090920104C0CC0CDD1CEC
:100BC000EE1CFF1C0A94D2F7C82AC5B8CF91FF903B
:100BD000EF90DF90CF900895CF92DF92EF92FF9247
:100BE0001F93CF93DF93182F35B1C12CD12C7601F1
:100BF000C394B701A6010090920104C0440F551F91
:100C0000661F771F0A94D2F74095242F232325B916
:100C1000892F0E94B405C82FD0E0DC2FCC27812F6C
:100C20000E94B40595B10090920104C0CC0CDD1C6B
:100C3000EE1CFF1C0A94D2F7C92AC5B89E01282BC6
:100C4000C901DF91CF911F91FF90EF90DF90CF907E
:100C500008958627682F62956827062E6695669503
:100C60006025062E669560256770082E892F66958B
:100C700007946795902D862706946795902586277B
:100C80000895CF9380E090E00E94BA058091990189
:100C9000853091F580E090EB0E94EC05682F809103
:100CA0009801811104C090919501911175C0E09156
:100CB000980181E08E0F80939801F0E0E45EFC4F94
:100CC000608380919601909197010E9429069093EC
:100CD00097018093960180911F032091980190E0E5
:100CE000059630E0821793070CF461C0809198015B
:100CF000863808F05CC060C08091990187FF1BC0F6
:100D0000E0911F038091990191E0980F90939901D0
:100D1000EC5F8E0FE82FF0E0E45EFC4FC081809125
:100D20009601909197016C2F0E942906909397014C
:100D3000809396012DC08091990191E0980F909336
:100D400099018330F1F054F48823A9F08130E9F45B
:100D50008091960190919701C92F1AC08930B9F0FE
:100D60008A3099F4C091950190911F038DEF891BF2
:100D7000809399010DC08091960190919701C82FA1
:100D800007C08DE092E80E94BA05CAEA01C0CDE230
:100D90008C2F90E098540DC0E091980181E08E0F67
:100DA00080939801F0E0E45EFC4F908380CF8DE06B
:100DB00092E8CF910C94BA05CF9108951F920F92AB
:100DC0000FB60F9211248F930FB6F894A8958091C7
:100DD0006000886180936000109260000FBE8F9168
:100DE0000F900FBE0F901F9018958EE480937C009B
:100DF00080917A00806480937A0080917A0086FDE9
:100E0000FCCF609193017091940120917800309112
:100E10007900CB01770FAA0BBB0BBC01CD014AE0D7
:100E2000660F771F881F991F4A95D1F740E050E061
:100E30000E94A40ECA01B9016B5F7F4F8F4F9F4F75
:100E40002AE030E040E050E00E94A40EC90108957D
:100E5000382F209172029091A803213208F049C0E6
:100E600080914F028111FCCF42E040934F023093BA
:100E70004E023FEF30934D0210924C0220934B02F2
:100E8000A2E5B2E04BE252E0FA013E2F341B3217EA
:100E900018F43D913193F9CF10922A0220912A0241
:100EA000990F922B90932A0290912902913061F42C
:100EB0001092290290912A029093BB009091BC005D
:100EC00093FDF8CF95EC01C095EE9093BC00909106
:100ED0004F029230E1F390914D029F3F79F0809163
:100EE0004D02803241F080914D02803331F084E038
:100EF00005C081E003C082E001C083E0109251028E
:100F00001092720210925002089591E09093500254
:100F100090E49093A8031092510210927202682FED
:100F200080E193E00E94660281E00C942807909192
:100F30004F029111FCCF813208F080E291E0909352
:100F40004F0290934E022FEF20934D0210924C02CD
:100F5000280F20934B0290932A0290912A029068C6
:100F600090932A0290912902913061F41092290203
:100F700090912A029093BB009091BC0093FDF8CF12
:100F800095EC01C095EE9093BC0090914F0291308A
:100F9000E1F390914C02981710F480914C02ABE26F
:100FA000B2E029E032E0F9019E2F921B981718F465
:100FB0009D919193F9CF10920802809307020895B2
:100FC000009769F0FC0101900020E9F73197AF012B
:100FD000481B590BBC0183E792E00C94EB0080E0C6
:100FE00090E00895CF93DF930E94E007EC0182E840
:100FF00091E00E94E0078C0F9D1FDF91CF91089533
:101000008F929F92AF92BF920F931F93CF93DF93D4
:10101000CDB7DEB7A1970FB6F894DEBF0FBECDBF38
:1010200019A2423008F44AE08E010F5D1F4F842E52
:10103000912CA12CB12CA50194010E94A40EE62FA5
:10104000B901CA0101501109EA3014F4E05D01C090
:10105000E95CD801EC93232B242B252B61F7C801E5
:101060000E94E007A1960FB6F894DEBF0FBECDBF79
:10107000DF91CF911F910F91BF90AF909F908F9074
:101080000895CF92DF92EF92FF92CF93DF936B019F
:101090007C01E0917302F09174020190F081E02DE7
:1010A0006DE283E792E00995EC0166277727CB0193
:1010B0006C197D098E099F094AE00E9400088C0F77
:1010C0009D1FDF91CF91FF90EF90DF90CF9008951B
:1010D0000F931F93CF93DF938C01C0E0D0E0F80112
:1010E000EC0FFD1F6491662371F0E0917302F091A3
:1010F00074020190F081E02D83E792E00995892B3D
:1011000011F02196ECCFCE01DF91CF911F910F917D
:1011100008954F925F926F927F928F929F92AF92BB
:10112000BF92CF92DF92EF92FF926B017C01B42EBF
:101130009B01AC010E940A11882319F085E891E017
:1011400027C026013701E89477F82FEF3FEF4FE7EC
:101150005FE7C301B2010E940A1181110DC02FEF98
:101160003FEF4FE75FE7C301B2010E94390F181646
:101170001CF489E891E00CC02FEF3FEF4FE75FE4EC
:10118000C701B6010E949810181684F48DE891E00A
:10119000FF90EF90DF90CF90BF90AF909F908F9097
:1011A0007F906F905F904F900C94E0072FEF3FEF90
:1011B0004FE75FECC701B6010E94390F87FDE6CF0C
:1011C00020E030E0A901C701B6010E94390F87FF76
:1011D00011C0E0917302F09174020190F081E02D52
:1011E0006DE283E792E009954C01F7FAF094F7F885
:1011F000F09402C0812C912CA12C60E070E080E082
:101200009FE3AB1441F020E030E040E251E40E9463
:101210003E0FA394F6CF9B01AC01C701B6010E941B
:10122000CD0E2B013C010E94B70F6B017C010E9487
:10123000E60F9B01AC01C301B2010E94CC0E2B0151
:101240003C014AE0C701B6010E9400087C01E80C9D
:10125000F91CBB2031F08FE391E00E94E007E80E1B
:10126000F91EDB2CDD2021F120E030E040E251E4EA
:10127000C301B2010E949D102B013C010E94B70FD7
:101280004B01A12CB12C4AE0C501B4010E94000819
:10129000E80EF91EC501B4010E94E60F9B01AC01E6
:1012A000C301B2010E94CC0E2B013C01DA94DACFCB
:1012B000C701FF90EF90DF90CF90BF90AF909F90CD
:1012C0008F907F906F905F904F900895CF93DF93B2
:1012D0000E946808EC0182E891E00E94E0078C0F10
:1012E0009D1FDF91CF9108950F931F93CF93DF93AD
:1012F00000D000D000D0CDB7DEB78E010F5F1F4FFA
:1013000086E0F80111928A95E9F781E00E9485074D
:1013100083E090E00E949707909107028091080275
:10132000981749F080E193E00E941A02F801819336
:1013300091938F01F1CF80E090E09B812D813E81E0
:10134000822B932B26960FB6F894DEBF0FBECDBF2F
:10135000DF91CF911F910F91089580E00E94850742
:1013600081E090E00E94970780E020910702909131
:101370000802291729F080E193E00E941A02F5CFB4
:101380000895CF93C82F81E08093500280E480932A
:10139000A803109251021092720263E080E193E080
:1013A0000E9466026C2F80E193E00E94660281E059
:1013B000CF910C942807E8980E94EC05E89A0895CC
:1013C000CF93DF93BC01990F880B990B97FF03C054
:1013D0000E94410803C04AE00E940008EC0182E834
:1013E00091E00E94E0078C0F9D1FDF91CF9108953F
:1013F000CF93DF93CDB7DEB76F970FB6F894DEBF0C
:101400000FBECDBF789484B5826084BD84B5816001
:1014100084BD85B5826085BD85B5816085BD8091BF
:101420006E00816080936E00109281008091810037
:10143000826080938100809181008160809381002F
:10144000809180008160809380008091B1008460F1
:101450008093B1008091B00081608093B000809152
:101460007A00846080937A0080917A008260809311
:101470007A0080917A008E7F80937A0080917A0042
:10148000806880937A001092C100E0918302F0910D
:10149000840212E01083E0917F02F09180021082BA
:1014A000E0918102F091820288E0808310928B02A9
:1014B000E0918702F091880286E08083E0918502C6
:1014C000F0918602808180618083E0918502F091B5
:1014D0008602808188608083E0918502F091860297
:1014E000808180688083E0918502F091860280810E
:1014F0008F7D80838FED90E00E9468088BE090E004
:101500000E94E0091093920185E08093A20181E09E
:10151000809395012A9A24B181E090E0A0E0B0E0A8
:101520000090920104C0880F991FAA1FBB1F0A9444
:10153000D2F7822B84B961E08AE00E94480361E01F
:101540008AE00E94780361E08BE00E94780360E00B
:101550008CE00E94780361E08DE00E94780380E5D2
:101560008CBD60E082E00E94780361E082E00E942E
:10157000480380E090E00E94BA0585E092E80E946E
:10158000BA0580E098EB0E94BA050CE910E0E8E8A3
:10159000EE2EE0E0FE2EF4E7CF2EF0E0DF2EF80195
:1015A0008491F701A490F601B490B11005C080E0D9
:1015B00090E00E94BA05F3CF81110E941F038B2D8A
:1015C00090E0880F991F88599F4FFC01A591B49115
:1015D0008C91A82261F387ED90E80E94BA0580E41F
:1015E00096EA0E94BA0588E096EC0E94BA0582EA63
:1015F00094E90E94BA058CEA92EC0E94BA05109117
:101600009501112341F083E89AEC0E94BA05812FDD
:1016100090E09E6C06C08BE89AEC0E94BA058DE2C1
:101620009EEC0E94BA0583E894EC0E94BA0580E51E
:1016300098E90E94BA0587E79CEC0E94BA0580E011
:1016400090EE0E94BA0580E098EC0E94BA0583E40F
:1016500090EC0E94BA0584E0809399018091A201E8
:10166000882369F081E496E0909301018093000162
:10167000809169008C7F80936900E89A07C0E898A0
:1016800087ED91E0909301018093000180E095EE59
:101690000E94DB0985E092E80E94DB0984E08093E8
:1016A000990181E08F9381EB8F9384E291E09F9386
:1016B0008F931F928FE18F938E010F5F1F4F1F93A8
:1016C0000F930E941411C8010E94F20781E491E077
:1016D0000E94E0074AE061E070E080E090E00E9454
:1016E000000886E491E00E94E00785E090E00E9417
:1016F000E00983E090E00E94C213182F84E090E09C
:101700000E94C213282F30E0322F2227C901810FF7
:10171000911D9093940180939301885E93400FB63E
:10172000F894DEBF0FBECDBF85369105A0F08EEADE
:1017300090E00E94660966E383E090E00E94CA138D
:1017400064E084E090E00E94CA1386E394E0909302
:1017500094018093930161E088E00E94780361E046
:1017600088E00E94480362E370E080E090E00E941D
:10177000B4031092080210920702109251021092C4
:10178000720210924F0281E080934E021092290261
:1017900061E082E10E94480361E083E10E94480326
:1017A0008091B9008E7F8093B9008091B9008D7FC0
:1017B0008093B90080E28093B80085E48093BC00F8
:1017C0008FE491E00E94F2071FE022242A94322C39
:1017D00008E189E391E00E94680861E088E00E94E6
:1017E000480362E370E080E090E00E94B40381E18E
:1017F0000E94C1090E94AD0980FDFCCF0E947409BE
:101800009695879596958795BC0180E090E00E941B
:10181000E60F20E030E040E05DE30E949D1020E014
:1018200030E048E452E40E94CC0E6B017C0181E080
:101830000E94C1090E94AD0980FDFCCF0E9474097D
:1018400024E0969587952A95E1F7BC0180E090E029
:101850000E94E60F20E030E040E85DE30E949D102A
:1018600020E030E040EC51E40E94CC0E4B015C01E2
:1018700062E370E080E090E00E94B40360E088E002
:101880000E944803A5019401C501B4010E949D1066
:101890002BE337EC40E85BEB0E949D102B013C01F1
:1018A00028EA35E34DEC5EE3C501B4010E949D10CA
:1018B0009B01AC01C301B2010E94CD0E2EEC39E1B7
:1018C00049E950E40E94CC0E9B01AC01C501B40172
:1018D0000E94CC0E4B015C0120E030E040EF51E46F
:1018E000C701B6010E94CC0E2B013C0120E032E57D
:1018F0004BE15BE3C501B4010E949D1023E039E098
:101900004AE45EE30E94CD0E9B01AC01C301B2012B
:101910000E949D109B01AC01C501B4010E94CD0E37
:101920004B015C010E94F506A7019601C701B601B3
:101930000E940A11811186C0A5019401C501B4015C
:101940000E940A1181117EC08EE191E00E94660919
:101950008DE091E00E94680842E0C701B6010E9454
:10196000890885E591E00E94F2078FEF90E00E94E0
:10197000680842E0C501B4010E94890887E591E04A
:101980000E94F20782EF90E00E9468080E94F5062C
:10199000BC01990F880B990B97FF03C00E94410867
:1019A00003C04AE00E9400088BE591E00E94F20724
:1019B0000E94F506782E692E20E030E040E05FE3DB
:1019C000C501B4010E94CD0E0E94B00F7F936F93AA
:1019D00020E030E040E05FE3C701B6010E94CD0E99
:1019E0000E94B00F7F936F936F927F92ADE5B1E04D
:1019F000BF93AF931F921F93A3EAB1E0BF93AF933E
:101A00000E9414118CE591E00E9466098DE092E835
:101A10000E94DB0984E0809399010FB6F894DEBF41
:101A20000FBECDBF44E0F42E80919901853009F0BE
:101A3000E3C0809198018111DFC00E94B40580FF4E
:101A400006C0DAC089E691E00E94F2077DCF8DE002
:101A500092E80E94BA0584E08093990110931F03D5
:101A6000E3EAF1E0A0E2B3E0812F01900D928A95C4
:101A7000E1F781E080931D038091A20180931E0312
:101A8000E091A203F091A303309711F081E0099552
:101A90003092970120929601809196019091970142
:101AA000609195010E942906909397018093960179
:101AB00086E0809399018DE392E80E94BA05F09048
:101AC0009901A4E0FA1659F083B7817F83BF83B7E9
:101AD000816083BF889583B78E7F83BFF0CF61E03D
:101AE00089E00E94780361E089E00E94480362E394
:101AF00070E080E090E00E94B40360E089E00E9422
:101B0000480380E095EE0E94DB0985E092E80E94A0
:101B1000DB09F092990164E670E080E090E00E94B9
:101B2000B40326E230E099E280917A008F778093C7
:101B30007A000FB6F894A895009360000FBE9093BA
:101B400060008091600080648093600083B7817F33
:101B5000846083BFF89483B7816083BF85B7806654
:101B600085BF8F7D85BF7894889583B78E7F83BF2F
:101B7000789480917A00806880937A0021503109AE
:101B800009F0D2CF2FB7F89480919A0190919B01E0
:101B9000A0919C01B0919D012FBF4091B601509141
:101BA000B7016091B8017091B901841B950BA60B28
:101BB000B70B8093B6019093B701A093B801B0938F
:101BC000B9014091B2015091B3016091B40170919B
:101BD000B50140585C456B4F7F4F840F951FA61F82
:101BE000B71F8093B2019093B301A093B401B09357
:101BF000B5010E94A801EDCD80919901853029F5AC
:101C000080911F032091980190E0059630E08217A3
:101C1000930724F0809198018638B8F0F0929901EA
:101C200080911F03813830F081E090E0909397011C
:101C30008093960180911D038F7741F180911D0360
:101C40008F779091A201891709F1809199018430D1
:101C500009F0EACE10921F0310929801309297017A
:101C60002092960160919501662341F08FEF9FEFDE
:101C70000E942906909397018093960195E0909396
:101C800099018DED92E80E94BA05CECE8091960121
:101C900090919701892B49F4E091A203F091A3035D
:101CA000309719F080E00995BFCE8FEF9FEFDC01F0
:101CB00080939E0190939F01A093A001B093A101F6
:101CC000B3CEE3E7F2E01382128288EE93E0A0E065
:101CD000B0E084839583A683B78328E031E0318325
:101CE000208325EC30E03587248724EC30E03787EB
:101CF000268720EC30E0318B208B21EC30E0338BD9
:101D0000228B22EC30E0358B248B26EC30E0378BB5
:101D1000268B118E128E138E148EE0E1F3E0138267
:101D2000128284839583A683B78388E191E09183AF
:101D30008083E2EAF3E080E293E0938382838FE1A1
:101D400093E0958384830895A1E21A2EAA1BBB1BFE
:101D5000FD010DC0AA1FBB1FEE1FFF1FA217B30777
:101D6000E407F50720F0A21BB30BE40BF50B661F8D
:101D7000771F881F991F1A9469F760957095809551
:101D800090959B01AC01BD01CF010895EE0FFF1F9F
:101D90000590F491E02D09945058BB27AA270E9482
:101DA000E40E0C945E100E94501038F00E94571000
:101DB00020F039F49F3F19F426F40C944D100EF4E2
:101DC000E095E7FB0C944710E92F0E946F1058F341
:101DD000BA17620773078407950720F079F4A6F510
:101DE0000C9491100EF4E0950B2EBA2FA02D0B0140
:101DF000B90190010C01CA01A0011124FF27591B50
:101E000099F0593F50F4503E68F11A16F040A22F55
:101E1000232F342F4427585FF3CF469537952795C6
:101E2000A795F0405395C9F77EF41F16BA0B620BC5
:101E3000730B840BBAF09150A1F0FF0FBB1F661F0C
:101E4000771F881FC2F70EC0BA0F621F731F841F4F
:101E500048F4879577956795B795F7959E3F08F075
:101E6000B0CF9395880F08F09927EE0F9795879537
:101E700008950E94231008F481E008950E94520FF3
:101E80000C945E100E94571058F00E94501040F0C1
:101E900029F45F3F29F00C94471051110C949210D3
:101EA0000C944D100E946F1068F39923B1F35523E1
:101EB00091F3951B550BBB27AA276217730784075D
:101EC00038F09F5F5F4F220F331F441FAA1FA9F3F3
:101ED00035D00E2E3AF0E0E832D091505040E695E1
:101EE000001CCAF72BD0FE2F29D0660F771F881F42
:101EF000BB1F261737074807AB07B0E809F0BB0B35
:101F0000802DBF01FF2793585F4F3AF09E3F510548
:101F100078F00C9447100C9492105F3FE4F3983ED5
:101F2000D4F3869577956795B795F7959F5FC9F731
:101F3000880F911D9695879597F90895E1E0660FB2
:101F4000771F881FBB1F621773078407BA0720F02B
:101F5000621B730B840BBA0BEE1F88F7E095089594
:101F60000E94B70F6894B1110C94921008950E94CA
:101F7000771088F09F5798F0B92F9927B751B0F094
:101F8000E1F0660F771F881F991F1AF0BA95C9F7FD
:101F900014C0B13091F00E949110B1E008950C94FA
:101FA0009110672F782F8827B85F39F0B93FCCF3AD
:101FB000869577956795B395D9F73EF4909580957A
:101FC000709561957F4F8F4F9F4F0895E89409C09A
:101FD00097FB3EF490958095709561957F4F8F4F5C
:101FE0009F4F9923A9F0F92F96E9BB279395F69572
:101FF000879577956795B795F111F8CFFAF4BB0FF0
:1020000011F460FF1BC06F5F7F4F8F4F9F4F16C053
:10201000882311F096E911C0772321F09EE8872FDD
:10202000762F05C0662371F096E8862F70E060E099
:102030002AF09A95660F771F881FDAF7880F969512
:10204000879597F90895990F0008550FAA0BE0E8B6
:10205000FEEF16161706E807F907C0F0121613066A
:10206000E407F50798F0621B730B840B950B39F4AA
:102070000A2661F0232B242B252B21F408950A2610
:1020800009F4A140A6958FEF811D811D089597F950
:102090009F6780E870E060E008959FEF80EC08950E
:1020A00000240A9416161706180609060895002437
:1020B0000A9412161306140605060895092E0394B1
:1020C000000C11F4882352F0BB0F40F4BF2B11F425
:1020D00060FF04C06F5F7F4F8F4F9F4F089557FD84
:1020E0009058440F551F59F05F3F71F04795880F86
:1020F00097FB991F61F09F3F79F08795089512161D
:1021000013061406551FF2CF4695F1DF08C01616C8
:1021100017061806991FF1CF869571056105089479
:102120000895E894BB2766277727CB0197F9089590
:102130000E94231008F48FEF08950E94B0100C94B1
:102140005E100E94501038F00E94571020F0952326
:1021500011F00C9447100C944D1011240C94921013
:102160000E946F1070F3959FC1F3950F50E0551FBB
:10217000629FF001729FBB27F00DB11D639FAA27DC
:10218000F00DB11DAA1F649F6627B00DA11D661F2B
:10219000829F2227B00DA11D621F739FB00DA11D4C
:1021A000621F839FA00D611D221F749F3327A00D06
:1021B000611D231F849F600D211D822F762F6A2FA2
:1021C00011249F5750409AF0F1F088234AF0EE0F07
:1021D000FF1FBB1F661F771F881F91505040A9F734
:1021E0009E3F510580F00C9447100C9492105F3F75
:1021F000E4F3983ED4F3869577956795B795F79570
:10220000E7959F5FC1F7FE2B880F911D96958795E7
:1022100097F908950E942310880B990B089581E087
:1022200090E0F8940C940F14AEE0B0E0EAE1F1E134
:102230000C94E6130D891E898F89988D26E02C83D6
:102240001A83098397FF02C080E090E801979E837C
:102250008D83AE01455E5F4F698D7A8DCE0101960B
:102260000E9444114D815E8157FD0AC02F8138853F
:10227000421753070CF49A01F801E20FF31F108282
:102280002E96E4E00C940214ACE0B0E0EAE4F1E154
:102290000C94D8137C016B018A01FC011782168211
:1022A000838181FFBDC1CE0101964C01F70193816D
:1022B000F60193FD859193FF81916F01882309F4C5
:1022C000ABC1853239F493FD859193FF81916F0104
:1022D000853229F4B70190E00E942C13E7CF512CEE
:1022E000312C20E02032A0F48B3269F030F48032BF
:1022F00059F0833269F420612CC08D3239F080337B
:1023000039F4216026C02260246023C0286021C0E7
:1023100027FD27C030ED380F3A3078F426FF06C08D
:10232000FAE05F9E300D1124532E13C08AE0389ED0
:10233000300D1124332E20620CC08E3221F426FD84
:102340006BC1206406C08C3611F4206802C0883648
:1023500041F4F60193FD859193FF81916F01811105
:10236000C1CF982F9F7D9554933028F40C5F1F4F59
:10237000FFE3F9830DC0833631F0833771F0833585
:1023800009F05BC022C0F801808189830E5F1F4F76
:1023900044244394512C540115C03801F2E06F0ECF
:1023A000711CF801A080B18026FF03C0652D70E08C
:1023B00002C06FEF7FEFC5012C870E9421132C0113
:1023C00083012C852F77222E17C03801F2E06F0E83
:1023D000711CF801A080B18026FF03C0652D70E05C
:1023E00002C06FEF7FEFC5012C870E9416132C01EE
:1023F0002C852068222E830123FC1BC0832D90E0B6
:1024000048165906B0F4B70180E290E00E942C1300
:102410003A94F4CFF50127FC859127FE81915F0165
:10242000B70190E00E942C1331103A94F1E04F1A5A
:1024300051084114510471F7E5C0843611F0893612
:1024400039F5F80127FF07C060817181828193818E
:102450000C5F1F4F08C060817181072E000C880B34
:10246000990B0E5F1F4F2F76722E97FF09C0909524
:102470008095709561957F4F8F4F9F4F2068722E8A
:102480002AE030E0A4010E946413A82EA81844C0DA
:10249000853729F42F7EB22E2AE030E025C0F22FB6
:1024A000F97FBF2E8F36C1F018F4883579F0B4C0AB
:1024B000803719F0883721F0AFC02F2F2061B22E5E
:1024C000B4FE0DC08B2D8460B82E09C024FF0AC055
:1024D0009F2F9660B92E06C028E030E005C020E1AD
:1024E00030E002C020E132E0F801B7FE07C06081B1
:1024F0007181828193810C5F1F4F06C06081718161
:1025000080E090E00E5F1F4FA4010E946413A82E8C
:10251000A818FB2DFF777F2E76FE0BC0372D3E7F50
:10252000A51450F474FE0AC072FC08C0372D3E7E1C
:1025300005C0BA2C372D03C0BA2C01C0B52C34FF0E
:102540000DC0FE01EA0DF11D8081803311F4397E4A
:1025500009C032FF06C0B394B39404C0832F8678B9
:1025600009F0B39433FD13C030FF06C05A2CB314E6
:1025700018F4530C5B18B32CB31468F4B70180E261
:1025800090E03C870E942C13B3943C85F5CFB314A4
:1025900010F43B1801C0312C34FF12C0B70180E3A6
:1025A00090E03C870E942C133C8532FF17C031FD20
:1025B00003C088E790E002C088E590E0B7010CC056
:1025C000832F867859F031FF02C08BE201C080E290
:1025D00037FD8DE2B70190E00E942C13A51438F46A
:1025E000B70180E390E00E942C135A94F7CFAA948D
:1025F000F401EA0DF11D8081B70190E00E942C13D7
:10260000A110F5CF332009F451CEB70180E290E05C
:102610000E942C133A94F6CFF7018681978102C06D
:102620008FEF9FEF2C96E2E10C94F413FC010590E0
:10263000615070400110D8F7809590958E0F9F1FC4
:102640000895FC016150704001900110D8F7809509
:1026500090958E0F9F1F08950F931F93CF93DF9335
:10266000FB01238121FD03C08FEF9FEF28C022FFD4
:1026700016C046815781248135814217530744F49F
:10268000A081B1819D012F5F3F4F318320838C93C7
:10269000268137812F5F3F4F3783268310C0EB01A0
:1026A000092F182F0084F185E02D0995892BE1F67B
:1026B0008E819F8101969F838E83812F902FDF9142
:1026C000CF911F910F910895FA01AA27283051F157
:1026D000203181F1E8946F936E7F6E5F7F4F8F4F53
:1026E0009F4FAF4FB1E03ED0B4E03CD0670F781FB2
:1026F000891F9A1FA11D680F791F8A1F911DA11D97
:102700006A0F711D811D911DA11D20D009F46894CF
:102710003F912AE0269F11243019305D3193DEF677
:10272000CF010895462F4770405D4193B3E00FD02D
:10273000C9F7F6CF462F4F70405D4A3318F0495D18
:1027400031FD4052419302D0A9F7EACFB4E0A695FB
:102750009795879577956795BA95C9F7009761051D
:10276000710508959B01AC010A2E06945795479573
:1027700037952795BA95C9F7620F731F841F951F68
:10278000A01D0895F999FECF92BD81BDF89A9927B1
:1027900080B50895262FF999FECF1FBA92BD81BD4D
:1027A00020BD0FB6F894FA9AF99A0FBE01960895D3
:1027B0002F923F924F925F926F927F928F929F9251
:1027C000AF92BF92CF92DF92EF92FF920F931F933F
:1027D000CF93DF93CDB7DEB7CA1BDB0B0FB6F894F0
:1027E000DEBF0FBECDBF09942A88398848885F8430
:1027F0006E847D848C849B84AA84B984C884DF80A1
:10280000EE80FD800C811B81AA81B981CE0FD11D84
:102810000FB6F894DEBF0FBECDBFED010895F8945A
:02282000FFCFE8
:10282200D701D70100000000B602EB009C017A013B
:102832008E01FD0200000000660236022E021A021C
:102842000B020A020A52464D31324220576F726B16
:10285200696E67206174202564204D687A2E2E2EC1
:10286200004E65743A00202F204E6F64653A005284
:102872006561647900430020250900560042256401
:102882002C5425642C482564004661696C656420DB
:10289200746F20726561642066726F6D20544830D7
:1028A20032000D0A006E616E00696E66006F766618
:0228B200000024
:00000001FF
