:100000000C94A4010C94CC010C94CC010C94CC0164
:100010000C94CC010C94CC010C94CC010C94CC012C
:100020000C94CC010C94CC010C94CC010C94CC011C
:100030000C94CC010C94CC010C94CC010C94CC010C
:100040000C944A040C94CC010C94DE030C94B80379
:100050000C94CC010C94CC010C94CC010C94CC01EC
:100060000C9494040C94CC010000000024002700A0
:100070002A005363616E20646F6E65004E6F2049E5
:100080003243206465766963657320666F756E64BC
:100090000A00556E6B6E6F77206572726F72206109
:1000A000742061646472657373203078002D3E2083
:1000B000556E6B6E6F776E2064657669636520217F
:1000C000002D3E2054483032202100493243206424
:1000D000657669636520666F756E64206174206162
:1000E0006464726573732030780057696C6C207299
:1000F0006574727920746F2066696E64205448308C
:100100003220696E2035207365632E0054483032EA
:1001100020436F6E666967203D2030780054483078
:100120003220436F6E666967206572726F72203D80
:100130002030780054483032205374617475732035
:100140003D20307800544830322053746174757308
:10015000206572726F72203D203078005448303232
:1001600020646576696365204944206D6174636825
:100170002021005448303220646576696365204947
:1001800044203D203078005448303220676574495F
:1001900064206572726F72203D203078000D0A5421
:1001A0004830322042414B452E205475726E7320E8
:1001B0006F6E2068656174657220616E642067658A
:1001C0007427732072656164696E672E004E6F77C5
:1001D0002077616974696E67203130207365632010
:1001E0006265666F7265206E65787420636F6E76E7
:1001F000657273696F6E2E002500252020526F7581
:100200006E6465642020002520203D3E20436F6DF4
:1002100070656E7361746564200052617720487563
:100220006D6964697479203D20004572726F722097
:1002300072656164696E672076616C75653D006DFD
:1002400073002E74696D6564206F757420002E64D0
:100250006F6E6520696E20005374617274696E67F9
:100260002048756D696469747920636F6E76657274
:1002700073696F6E2E48656174657220456E6162A8
:100280006C65642100204300204320203D3E202057
:100290000054656D7065726174757265203D200053
:1002A0004572726F722072656164696E6720766153
:1002B0006C75653D006D73002E74696D6564206F0B
:1002C000757420002E646F6E6520696E2000537473
:1002D000617274696E672054656D706572617475C2
:1002E000726520636F6E76657273696F6E2E20483B
:1002F000656174657220456E61626C656421000001
:10030000000000250028002B000404040404040459
:1003100004020202020202030303030303010204B4
:100320000810204080010204081020010204081077
:100330002000000008000201000003040700000084
:100340000000000000009B0C11241FBECFEFD8E07E
:10035000DEBFCDBF11E0A0E0B1E0E4E0F0E202C01A
:1003600005900D92A434B107D9F722E0A4E4B1E0DE
:1003700001C01D92A43BB207E1F711E0C4EAD1E04D
:1003800004C02197FE010E94340DC33AD107C9F77A
:100390000E94320A0C9400100C940000CF92DF925D
:1003A000EF92FF920F931F93CF93DF936C017A012B
:1003B0008B01C0E0D0E0CE15DF0589F0D8016D914A
:1003C0008D01D601ED91FC910190F081E02DC601E7
:1003D0000995892B11F47E0102C02196ECCFC7014B
:1003E000DF91CF911F910F91FF90EF90DF90CF9011
:1003F0000895FC01918D828D981761F0828DDF0147
:10040000A80FB11D5D968C91928D9F5F9F73928F07
:1004100090E008958FEF9FEF0895FC01918D828DFC
:10042000981731F0828DE80FF11D858D90E00895C9
:100430008FEF9FEF0895FC01918D228D892F90E021
:10044000805C9F4F821B91098F739927089582E0EA
:1004500092E00E941B0221E0892B09F420E0822F08
:100460000895FC01848DDF01A80FB11DA35ABF4F71
:100470002C91848D90E001968F739927848FA689A3
:10048000B7892C93A089B1898C9180648C93938DCA
:10049000848D981306C00288F389E02D80818F7DBA
:1004A00080830895EF92FF920F931F93CF93DF9372
:1004B000EC0181E0888F9B8D8C8D981305C0E889B5
:1004C000F989808185FD24C0F62E0B8D10E00F5F29
:1004D0001F4F0F731127E02E8C8DE8120CC00FB642
:1004E00007FCFACFE889F989808185FFF5CFCE0135
:1004F0000E943102F1CF8B8DFE01E80FF11DE35A0E
:10050000FF4FF0820B8FEA89FB898081806207C0F0
:10051000EE89FF896083E889F9898081806480831E
:1005200081E090E0DF91CF911F910F91FF90EF90CC
:100530000895CF93DF93EC01888D8823C9F0EA8971
:10054000FB89808185FD05C0A889B9898C9186FDCC
:100550000FC00FB607FCF5CF808185FFF2CFA889C9
:10056000B9898C9185FFEDCFCE010E943102E7CF92
:10057000DF91CF91089580E090E0892B29F00E94CF
:10058000270281110C94000008953FB7F8948091E0
:10059000900190919101A0919201B091930126B5A3
:1005A000A89B05C02F3F19F00196A11DB11D3FBFAB
:1005B000BA2FA92F982F8827820F911DA11DB11D39
:1005C000BC01CD0143E0660F771F881F991F4A9534
:1005D000D1F7089585ED8093BC008091BC0084FD27
:1005E000FCCF1092DD01089540916601262F30E086
:1005F000240F311D21323105DCF42091DD0124303E
:10060000C9F4FC0180E090E0861758F4309166014F
:100610002191DC01AC5BBE4FA30FB11D2C93019661
:10062000F3CF80916601680F6093660180E00895C2
:1006300081E0089582E008950895E0919601809107
:100640009501E81730F4F0E0E956FE4F808190E024
:1006500008958FEF9FEF08959091960180919501F5
:10066000981750F4E92FF0E0E956FE4F208130E072
:100670009F5F9093960102C02FEF3FEFC90108954D
:100680008091950190E020919601821B9109089537
:10069000CF92DF92EF92FF920F931F93CF93DF934E
:1006A0007C01262F972F8A018091DE01882391F00B
:1006B000C62FD72F6E01C40ED51ECC15DD0571F0E7
:1006C0006991D701ED91FC910190F081E02DC70176
:1006D0000995F3CF642F822F0E94F402C801DF91A5
:1006E000CF911F910F91FF90EF90DF90CF900895E1
:1006F000CF93DF931F92CDB7DEB769832091DE01E0
:100700002223D1F020910102203240F021E030E09C
:10071000FC013383228380E090E015C08091DF01EB
:10072000E82FF0E0E052FE4F998190838F5F809335
:10073000DF018093010205C061E0CE0101960E94B5
:10074000F40281E090E00F90DF91CF910895CF9374
:10075000C82F803118F480E30E9459066C2F70E096
:1007600080E090E040E1CF910C9418060E94FB0FCE
:100770001F920F920FB60F9211242F933F934F9316
:100780005F936F937F938F939F93AF93BF93EF93F9
:10079000FF9382E092E00E943102FF91EF91BF91BE
:1007A000AF919F918F917F916F915F914F913F9109
:1007B0002F910F900FBE0F901F9018951F920F92C0
:1007C0000FB60F9211242F938F939F93EF93FF9364
:1007D000E0911202F09113028081E0911802F091F1
:1007E000190282FD12C0908180911B028F5F8F736E
:1007F00020911C02821751F0E0911B02F0E0EE5FA5
:10080000FD4F958F80931B0201C08081FF91EF9176
:100810009F918F912F910F900FBE0F901F90189561
:100820008F929F92AF92BF92CF92DF92EF92FF9200
:100830006B017C010E94C5024B015C01C114D10413
:10084000E104F104F1F00E94C502DC01CB0188193A
:100850009909AA09BB09883E9340A105B10570F327
:1008600021E0C21AD108E108F10888EE880E83E081
:10087000981EA11CB11CC114D104E104F10419F7A4
:10088000DDCFFF90EF90DF90CF90BF90AF909F9023
:100890008F9008951F920F920FB60F9211242F93ED
:1008A0003F938F939F93AF93BF9380918C019091CF
:1008B0008D01A0918E01B0918F0130918B0126E0C6
:1008C000230F2D3720F40296A11DB11D05C029E884
:1008D000230F0396A11DB11D20938B0180938C01E2
:1008E00090938D01A0938E01B0938F018091900120
:1008F00090919101A0919201B09193010196A11D57
:10090000B11D8093900190939101A0939201B093B7
:100910009301BF91AF919F918F913F912F910F9034
:100920000FBE0F901F9018951F920F920FB60F9247
:1009300011242F933F934F935F936F937F938F93E4
:100940009F93AF93BF93EF93FF938091B900887FFC
:10095000803609F49CC068F5883209F45BC090F4D5
:10096000803109F454C038F4882309F4F6C0883083
:1009700009F44DC0F6C0883109F44CC0803209F446
:100980005DC0EFC0803409F468C048F4803309F4D6
:1009900055C0883309F0E5C08093DB01D8C08035AD
:1009A00009F44FC0883509F45DC0883409F0D9C016
:1009B000D6C0883909F4C7C0A8F4883709F467C0DD
:1009C00038F4883609F463C0803709F460C0C9C0C0
:1009D000883809F4B8C0803909F45FC0803809F05C
:1009E000C0C05BC0803B09F486C038F4803A09F48B
:1009F00066C0883A09F47FC0B4C0803C09F4A7C03F
:100A0000883C09F4A4C0883B09F48AC0AAC080913C
:100A1000B80110C09091DA018091D901981770F552
:100A2000E091DA0181E08E0F8093DA01F0E0E75483
:100A3000FE4F80818093BB0085EC86C08093DB01F4
:100A40008EC0E091DA0181E08E0F8093DA0180910F
:100A5000BB00F0E0E754FE4F80839091DA01809173
:100A6000D9016EC0E091DA0181E08E0F8093DA0146
:100A70008091BB00F0E0E754FE4F80838091DC0161
:100A800081116DC081E08093B70184EA61C083E089
:100A90008093DD0110928A01CFCF80918A0180324C
:100AA00008F051C0E0918A0181E08E0F80938A01A5
:100AB0008091BB00F0E0E659FE4F8083BDCF85EC0E
:100AC0008093BC001092DD0180918A01803230F465
:100AD000E0918A01F0E0E659FE4F108260918A01B0
:100AE00070E0E0916801F09169018AE691E0099572
:100AF00010928A0136C084E08093DD011092670174
:100B000010926601E0916401F09165010995809170
:100B10006601811105C081E0809366011092440155
:100B2000E091670181E08E0F80936701F0E0EC5B5C
:100B3000FE4F80818093BB00909167018091660198
:100B4000981708F479CF85E88093BC000AC085EC3B
:100B50008093BC001092DD0104C01092DB010E9462
:100B6000EA02FF91EF91BF91AF919F918F917F9199
:100B70006F915F914F913F912F910F900FBE0F900A
:100B80001F9018959091DD019111FCCF91E0909309
:100B9000DD019093DC012FEF2093DB011092DA014D
:100BA000260F2093D9019093B8019091B801880F36
:100BB000892B8093B8018091B701813061F4109244
:100BC000B7018091B8018093BB008091BC0083FD88
:100BD000F8CF85EC01C085EE8093BC008091DD01EB
:100BE0008130E1F38091DA01861710F46091DA0127
:100BF000A9EBB1E027E931E0F9018E2F821B8617BE
:100C000018F48D918193F9CF862F0895009769F09C
:100C1000FC0101900020E9F73197AF01481B590B07
:100C2000BC0182E092E00C94CE0180E090E0089557
:100C30008F929F92AF92BF920F931F93CF93DF93A8
:100C4000CDB7DEB7A1970FB6F894DEBF0FBECDBF0C
:100C500019A2423008F44AE08E010F5D1F4F842E26
:100C6000912CA12CB12CA50194010E94E80CE62F37
:100C7000B901CA0101501109EA3014F4E05D01C064
:100C8000E95CD801EC93232B242B252B61F7C801B9
:100C90000E940606A1960FB6F894DEBF0FBECDBF28
:100CA000DF91CF911F910F91BF90AF909F908F9048
:100CB0000895E0910202F09103020190F081E02D8D
:100CC000682F82E092E0099485E391E00C94060697
:100CD0000F931F93CF93DF938C01C0E0D0E0F80116
:100CE000EC0FFD1F6491662371F0E0910202F09118
:100CF00003020190F081E02D82E092E00995892BBA
:100D000011F02196ECCFCE01DF91CF911F910F9181
:100D10000895CF93DF930E946806EC010E94640659
:100D20008C0F9D1FDF91CF910895382F20910102E4
:100D300090910002213208F049C08091DD018111BB
:100D4000FCCF42E04093DD013093DC013FEF309374
:100D5000DB011092DA012093D901A0EEB1E049EB5A
:100D600051E0FA013E2F341B321718F43D913193B4
:100D7000F9CF1092B8012091B801990F922B90935E
:100D8000B8019091B701913061F41092B701909140
:100D9000B8019093BB009091BC0093FDF8CF95EC07
:100DA00001C095EE9093BC009091DD019230E1F38B
:100DB0009091DB019F3F79F08091DB01803241F01F
:100DC0008091DB01803331F084E005C081E003C015
:100DD00082E001C083E01092DF01109201021092C4
:100DE000DE0108950F931F93CF938B019091B3026F
:100DF00021E02093DE01909300021092DF01109217
:100E00000102682F8FE992E00E94780380E00E943F
:100E10009506C82F811113C061E08091B3020E9432
:100E2000C2051092960180939501813039F48FE9C3
:100E300092E00E942C03F801808301C0C4E081E0AD
:100E40000E9495068C2FCF911F910F91089590E0ED
:100E5000FC01EF5CFC4F2491FC01E35EFC4F3491FC
:100E6000FC01E75FFC4FE491EE23B1F1222339F15D
:100E7000233091F038F42130A9F0223001F584B507
:100E80008F7D12C0273091F02830A1F02430B9F4C2
:100E9000809180008F7D03C0809180008F77809348
:100EA00080000DC084B58F7784BD09C08091B000EB
:100EB0008F7703C08091B0008F7D8093B000F0E009
:100EC000EE0FFF1FE150FD4FA591B4918FB7F8943D
:100ED000EC913E2B3C938FBF08958F929F92AF92DF
:100EE000BF92CF92DF92EF92FF92CF93DF936B018D
:100EF0007C019B01AC010E94F60F882319F088E366
:100F000091E027C046015701E894B7F82FEF3FEF73
:100F10004FE75FE7C501B4010E94F60F81110DC0D4
:100F20002FEF3FEF4FE75FE7C501B4010E94CD0D02
:100F300018161CF48CE391E00CC02FEF3FEF4FE745
:100F40005FE4C701B6010E94840F181674F480E4B0
:100F500091E0DF91CF91FF90EF90DF90CF90BF9025
:100F6000AF909F908F900C9406062FEF3FEF4FE7C6
:100F70005FECC701B6010E94CD0D87FDE8CF20E0F0
:100F800030E0A901C701B6010E94CD0D87FF09C05D
:100F90008DE20E945906EC01F7FAF094F7F8F0940C
:100FA00002C0C0E0D0E02AE037ED43EA5BE3C701CE
:100FB000B6010E944A0D4B015C010E944B0E6B0171
:100FC0007C010E947A0E9B01AC01C501B4010E9414
:100FD000490D4B015C014AE0C701B6010E941806A9
:100FE000C80FD91F83E391E00E940606C80FD91FDE
:100FF00020E030E040E251E4C501B4010E94890FD5
:101000004B015C010E944B0E6B01E12CF12C4AE07C
:10101000C701B6010E941806C80FD91FC701B60143
:101020000E947A0E9B01AC01C501B4010E94490DDA
:1010300020E030E040E251E40E94890F0E944B0E14
:1010400080E090E04AE00E9418068C0F9D1FDF911F
:10105000CF91FF90EF90DF90CF90BF90AF909F9097
:101060008F9008958F929F92AF92BF92CF92DF920E
:10107000EF92FF92CF93282F6091AF027091B00250
:101080008091B1029091B202673534E07307810517
:10109000910509F49BC0C22F0E947C0E20E030E035
:1010A00048EC52E40E94D20D6B017C019B01AC0123
:1010B0000E94890F2BE337EC40E85BEB0E94890F1D
:1010C0004B015C0128EA35E34DEC5EE3C701B60154
:1010D0000E94890F9B01AC01C501B4010E944A0D19
:1010E0002EEC39E149E950E40E94490D9B01AC0125
:1010F000C701B6010E94490D6B017C016091AB02F2
:101100007091AC028091AD029091AE02633029EDF6
:1011100072078105910561F10E947C0E20E030E0AC
:1011200048EC52E40E94D20D20E030E040EF51E460
:101130000E94490D4B015C0120E032E54BE15BE38D
:10114000C701B6010E94890F23E039E04AE45EE35B
:101150000E944A0D9B01AC01C501B4010E94890F98
:101160009B01AC01C701B6010E944A0D6B017C01D5
:1011700020E030E048EC52E4C701B6010E94890F3C
:10118000CC2301F120E030E040E251E40E94D20D96
:101190006B017C0120E030E0A9010E94840F20E077
:1011A00030E040E05FE387FD07C0C701B6010E9461
:1011B0004A0D0E94B70E06C0C701B6010E94490D34
:1011C0000E94B60D0E94440ECB0102C089E390E359
:1011D000CF91FF90EF90DF90CF90BF90AF909F9016
:1011E0008F900895CF92DF92EF92FF92CF93DF938B
:1011F0006C01990FEE08FF08F7FE12C08DE20E9405
:101200005906EC0166277727CB016C197D098E09F9
:101210009F094AE00E9418067C01EC0EFD1E06C0E4
:101220004AE0C701B6010E9418067C010E946406CC
:101230008E0D9F1DDF91CF91FF90EF90DF90CF90AB
:101240000895CF92DF92EF92FF920F931F93CF9367
:10125000DF931F92CDB7DEB78091B30291E09093F8
:10126000DE01809300021092DF011092010261E022
:101270008FE992E00E94780380E00E949506811138
:10128000A7C062E08091B3020E94C205109296014D
:1012900080939501823019F009E310E395C08FE93E
:1012A00092E00E942C03F82E8FE992E00E942C031A
:1012B0008C01BE016F5F7F4F83E00E94F2068111B7
:1012C000EBCF20E030E03F2D202B312BA901330F55
:1012D000660B770B89819A01AB0184FF31C092E0E4
:1012E00055954795379527959A95D1F7A4E6B0E09F
:1012F0000E94290D20E230E040E050E00E940A0DFB
:10130000DA01C90188589341A109B109283833414C
:10131000410551051CF0BC01CD0109C09C01AD0186
:1013200066277727CB01621B730B840B950B6093A9
:10133000AB027093AC028093AD029093AE021FC0DB
:1013400084E055954795379527958A95D1F7A4E67A
:10135000B0E00E94290D20E130E040E050E00E9422
:101360000A0DCA01B901605679408109910960935B
:10137000AF027093B0028093B1029093B2020E94C8
:101380007C0E20E030E040E251E40E94D20D6B017F
:101390007C0120E030E0A9010E94840F20E030E0D1
:1013A00040E05FE387FD07C0C701B6010E944A0D18
:1013B0000E94B70E06C0C701B6010E94490D0E94E7
:1013C000B60D0E94440E8B0181E00E94950602C07A
:1013D00009E310E3C8010F90DF91CF911F910F91A6
:1013E000FF90EF90DF90CF9008951F93CF93DF93FE
:1013F0001F92CDB7DEB710E0BE016F5F7F4F80E078
:101400000E94F20681110DC0898180FF0AC013334A
:1014100041F01F5F61E070E080E090E00E94100406
:10142000EBCF812F0F90DF91CF911F910895CF9334
:10143000C82F8091B30291E09093DE018093000267
:101440001092DF011092010263E08FE992E00E94A6
:1014500078036C2F8FE992E00E94780381E0CF91AE
:101460000C949506CF93DF9300D01F92CDB7DEB7D3
:10147000789484B5826084BD84B5816084BD85B56F
:10148000826085BD85B5816085BD80916E0081607B
:1014900080936E0010928100809181008260809321
:1014A0008100809181008160809381008091800023
:1014B0008160809380008091B10084608093B1004E
:1014C0008091B00081608093B00080917A00846048
:1014D00080937A0080917A00826080937A00809174
:1014E0007A008E7F80937A0080917A008068809362
:1014F0007A001092C100E0911202F091130282E092
:101500008083E0910E02F0910F021082E0911002B0
:10151000F091110288E0808310921A02E091160285
:10152000F091170286E08083E0911402F091150299
:10153000808180618083E0911402F09115028081A6
:1015400088608083E0911402F091150280818068A8
:101550008083E0911402F091150280818F7D808359
:101560008DE991E00E948906E5E2F3E02491E1E152
:10157000F3E08491882399F090E0880F991FFC0193
:10158000E859FF4FA591B491FC01E150FD4F8591C1
:1015900094918FB7F894EC91E22BEC938FBF88E095
:1015A0000E94270762E370E080E090E00E94100450
:1015B00010929601109295011092DF011092010293
:1015C0001092DD0181E08093DC011092B70182E18D
:1015D0000E94270783E10E9427078091B9008E7F30
:1015E0008093B9008091B9008D7F8093B90080E22B
:1015F0008093B80085E48093BC00BB24B3948091B1
:101600009401811113C180E291E00E9406060E94BC
:101610006406C12CD12C7601C39400E010E0B09296
:10162000DE01C09200021092DF011092010281E0FF
:101630000E94950681111BC08BEC90E00E94680609
:101640008C2D0E94A70320E4C216D104E104F1040A
:1016500039F481EC90E00E948906B092940104C0B4
:101660008DEA90E00E9489060F5F1F4F16C08430FC
:10167000A1F482E990E00E94680680E1C816D104D6
:10168000E104F10418F480E30E94590640E1C70127
:10169000B6010E9418060E9464062FEFC21AD20AF1
:1016A000E20AF20A8FE7C816D104E104F10409F056
:1016B000B6CF012B19F48CE790E002C082E790E0EE
:1016C0000E94890680919401882309F44CC0BE01D0
:1016D0006D5F7F4F81E10E94F206182F882319F079
:1016E00087E891E033C083E791E00E9468068B8130
:1016F0000E94A7030E9464068B818035A1F58CE5CA
:1017000091E00E948906BE016E5F7F4F80E00E94DB
:10171000F206182F882331F085E491E00E946806D4
:10172000812F05C084E391E00E9468068A810E94AF
:10173000A7030E946406BE016F5F7F4F83E00E9493
:10174000F206182F882331F08DE191E00E9468069F
:10175000812F05C08CE091E00E94680689810E947B
:10176000A7030E94640680919401811148CF8AEEFC
:1017700090E00E94890668E873E180E090E00E94B2
:1017800010043DCF88EB92E00E946806612F70E064
:1017900080E090E04AE00E94180685EB92E00E940B
:1017A00089060E9421097C018933904309F04EC0CB
:1017B00080EA92E00E94680689E390E30E94F208C2
:1017C00088E592E00E94680683E00E94170A0E9462
:1017D000F509182F833308F066C08EE492E00E946A
:1017E0006806612F70E080E090E04AE00E941806F1
:1017F0008FE392E00E9489060E9421098933904379
:1018000009F054C08AE292E00E94680689E390E3FE
:101810000E94F2088DEC91E00E94890660E177E277
:1018200080E090E00E9410040E94BB028EEC92E0E7
:101830000E94680683E10E94170A0E94F509182F8A
:10184000833308F09FCF84EC92E09ECF81E992E051
:101850000E9468066091AB027091AC028091AD026B
:101860009091AE020E947C0E20E030E048EC52E401
:101870000E94D20D0E946D0788E892E00E946806DF
:10188000B701FF0C880B990B0E947C0E20E030E022
:1018900040E251E40E94D20D0E946D0785E892E07B
:1018A0000E9489068DCF82E492E099CF8AE192E08E
:1018B0000E9468066091AF027091B0028091B102FF
:1018C0009091B2020E947C0E20E030E048EC52E49D
:1018D0000E94D20D0E946D0787E092E00E94680688
:1018E00080E00E943208BC01990F880B990B0E947E
:1018F0007C0E20E030E048EC52E40E94D20D0E94C1
:101900006D078AEF91E00E94680681E00E9432082C
:10191000BC01990F880B990B0E947C0E20E030E0EF
:1019200040E251E40E94D20D0E946D0788EF91E0E1
:101930000E9489066FCFE2E0F2E01382128288EE05
:1019400093E0A0E0B0E084839583A683B78324E08E
:1019500031E03183208325EC30E03587248724EC87
:1019600030E03787268720EC30E0318B208B21EC6C
:1019700030E0338B228B22EC30E0358B248B26EC4D
:1019800030E0378B268B118E128E138E148EEFE97A
:10199000F2E01382128284839583A683B78384E165
:1019A00091E091838083EBEAF2E080E4808783E03A
:1019B00099EDA0E0B0E080839183A283B38387E5B3
:1019C00094E0A0E0B0E084839583A683B783089574
:1019D000A1E21A2EAA1BBB1BFD010DC0AA1FBB1F33
:1019E000EE1FFF1FA217B307E407F50720F0A21BA5
:1019F000B30BE40BF50B661F771F881F991F1A9412
:101A000069F760957095809590959B01AC01BD013B
:101A1000CF010895052E97FB1EF400940E94210D1E
:101A200057FD07D00E94E80C07FC03D04EF40C943D
:101A3000210D50954095309521953F4F4F4F5F4F69
:101A4000089590958095709561957F4F8F4F9F4F2A
:101A500008950E943A0DA59F900DB49F900DA49FEC
:101A6000800D911D11240895EE0FFF1F0590F49134
:101A7000E02D0994A29FB001B39FC001A39F700DF8
:101A8000811D1124911DB29F700D811D1124911D86
:101A900008955058BB27AA270E94610D0C94320F5D
:101AA0000E94240F38F00E942B0F20F039F49F3F42
:101AB00019F426F40C94210F0EF4E095E7FB0C9436
:101AC000F20EE92F0E94430F58F3BA17620773070B
:101AD0008407950720F079F4A6F50C947D0F0EF499
:101AE000E0950B2EBA2FA02D0B01B90190010C012E
:101AF000CA01A0011124FF27591B99F0593F50F446
:101B0000503E68F11A16F040A22F232F342F44279D
:101B1000585FF3CF469537952795A795F040539595
:101B2000C9F77EF41F16BA0B620B730B840BBAF065
:101B30009150A1F0FF0FBB1F661F771F881FC2F7D0
:101B40000EC0BA0F621F731F841F48F487957795E4
:101B50006795B795F7959E3F08F0B0CF9395880F9E
:101B600008F09927EE0F9795879508950E94650FC5
:101B700090F09F3748F4911116F40C947E0F60E0BA
:101B800070E080E89FE3089526F01B16611D711D2B
:101B9000811D0C94F80E0C94130F0E94CE0E08F4C5
:101BA00081E008950E94E60D0C94320F0E942B0FE5
:101BB00058F00E94240F40F029F45F3F29F00C9464
:101BC000F20E51110C947E0F0C94210F0E94430FC2
:101BD00068F39923B1F3552391F3951B550BBB275C
:101BE000AA2762177307840738F09F5F5F4F220FA1
:101BF000331F441FAA1FA9F335D00E2E3AF0E0E898
:101C000032D091505040E695001CCAF72BD0FE2FE1
:101C100029D0660F771F881FBB1F26173707480775
:101C2000AB07B0E809F0BB0B802DBF01FF2793582D
:101C30005F4F3AF09E3F510578F00C94F20E0C94F1
:101C40007E0F5F3FE4F3983ED4F3869577956795D2
:101C5000B795F7959F5FC9F7880F911D9695879562
:101C600097F90895E1E0660F771F881FBB1F621781
:101C700073078407BA0720F0621B730B840BBA0B3F
:101C8000EE1F88F7E09508950E944B0E6894B111FD
:101C90000C947E0F08950E944B0F88F09F5798F088
:101CA000B92F9927B751B0F0E1F0660F771F881F61
:101CB000991F1AF0BA95C9F714C0B13091F00E947B
:101CC0007D0FB1E008950C947D0F672F782F882742
:101CD000B85F39F0B93FCCF3869577956795B395A2
:101CE000D9F73EF490958095709561957F4F8F4F11
:101CF0009F4F0895E89409C097FB3EF49095809516
:101D0000709561957F4F8F4F9F4F9923A9F0F92FC1
:101D100096E9BB279395F695879577956795B7953F
:101D2000F111F8CFFAF4BB0F11F460FF1BC06F5F25
:101D30007F4F8F4F9F4F16C0882311F096E911C037
:101D4000772321F09EE8872F762F05C0662371F058
:101D500096E8862F70E060E02AF09A95660F771F6C
:101D6000881FDAF7880F9695879597F908950E944E
:101D7000650F90F09F3748F4911116F00C947E0F88
:101D800060E070E080E89FEB089526F41B16611D6B
:101D9000711D811D0C94F80E0C94130F990F0008FF
:101DA000550FAA0BE0E8FEEF16161706E807F9072D
:101DB000C0F012161306E407F50798F0621B730BC8
:101DC000840B950B39F40A2661F0232B242B252B49
:101DD00021F408950A2609F4A140A6958FEF811DEC
:101DE000811D089597F99F6780E870E060E008958D
:101DF000882371F4772321F09850872B762F07C022
:101E0000662311F499270DC09051862B70E060E095
:101E10002AF09A95660F771F881FDAF7880F969534
:101E2000879597F908959F3F31F0915020F4879559
:101E300077956795B795880F911D9695879597F932
:101E400008959FEF80EC089500240A941616170653
:101E500018060906089500240A941216130614069B
:101E600005060895092E0394000C11F4882352F0FE
:101E7000BB0F40F4BF2B11F460FF04C06F5F7F4FB6
:101E80008F4F9F4F089557FD9058440F551F59F09D
:101E90005F3F71F04795880F97FB991F61F09F3F57
:101EA00079F087950895121613061406551FF2CF80
:101EB0004695F1DF08C0161617061806991FF1CFD0
:101EC000869571056105089408950E944B0FA0F056
:101ED000BEE7B91788F4BB279F3860F41616B11D0A
:101EE000672F782F8827985FF7CF86957795679526
:101EF000B11D93959639C8F30895E894BB276627DA
:101F00007727CB0197F908950E94CE0E08F48FEF42
:101F100008950E949C0F0C94320F0E94240F38F0F9
:101F20000E942B0F20F0952311F00C94F20E0C94CC
:101F3000210F11240C947E0F0E94430F70F3959F84
:101F4000C1F3950F50E0551F629FF001729FBB27B0
:101F5000F00DB11D639FAA27F00DB11DAA1F649F4C
:101F60006627B00DA11D661F829F2227B00DA11DFF
:101F7000621F739FB00DA11D621F839FA00D611D85
:101F8000221F749F3327A00D611D231F849F600DA6
:101F9000211D822F762F6A2F11249F5750409AF0CF
:101FA000F1F088234AF0EE0FFF1FBB1F661F771F5B
:101FB000881F91505040A9F79E3F510580F00C9426
:101FC000F20E0C947E0F5F3FE4F3983ED4F38695B7
:101FD00077956795B795F795E7959F5FC1F7FE2BC6
:101FE000880F911D9695879597F908950E94CE0EBA
:101FF000880B990B089581E090E0F8940C94001000
:04200000F894FFCF82
:10200400000000005202CE011B02F9010D029902E8
:10201400000000007803480340032C031D031C0345
:102024005363616E6E696E67204932432062757333
:10203400202E2E2E000D0A006E616E00696E660061
:042044006F7666004D
:00000001FF
